{
  "contractName": "Notes",
  "abi": [
    {
      "inputs": [],
      "stateMutability": "nonpayable",
      "type": "constructor"
    },
    {
      "anonymous": false,
      "inputs": [
        {
          "indexed": false,
          "internalType": "address",
          "name": "owner",
          "type": "address"
        },
        {
          "indexed": false,
          "internalType": "uint256",
          "name": "tokenId",
          "type": "uint256"
        }
      ],
      "name": "Created",
      "type": "event"
    },
    {
      "inputs": [
        {
          "internalType": "uint256",
          "name": "",
          "type": "uint256"
        }
      ],
      "name": "tokenIdToNoteInfo",
      "outputs": [
        {
          "internalType": "string",
          "name": "title",
          "type": "string"
        },
        {
          "internalType": "string",
          "name": "content",
          "type": "string"
        }
      ],
      "stateMutability": "view",
      "type": "function",
      "constant": true
    },
    {
      "inputs": [
        {
          "internalType": "address",
          "name": "",
          "type": "address"
        },
        {
          "internalType": "uint256",
          "name": "",
          "type": "uint256"
        }
      ],
      "name": "userToTokenIdListInfo",
      "outputs": [
        {
          "internalType": "uint256",
          "name": "",
          "type": "uint256"
        }
      ],
      "stateMutability": "view",
      "type": "function",
      "constant": true
    },
    {
      "inputs": [
        {
          "internalType": "address",
          "name": "owner",
          "type": "address"
        }
      ],
      "name": "notesByOwner",
      "outputs": [
        {
          "components": [
            {
              "internalType": "string",
              "name": "title",
              "type": "string"
            },
            {
              "internalType": "string",
              "name": "content",
              "type": "string"
            }
          ],
          "internalType": "struct Notes.Note[]",
          "name": "",
          "type": "tuple[]"
        }
      ],
      "stateMutability": "view",
      "type": "function",
      "constant": true
    },
    {
      "inputs": [
        {
          "internalType": "string",
          "name": "_title",
          "type": "string"
        },
        {
          "internalType": "string",
          "name": "_content",
          "type": "string"
        }
      ],
      "name": "createNote",
      "outputs": [],
      "stateMutability": "nonpayable",
      "type": "function"
    },
    {
      "inputs": [],
      "name": "totalSupply",
      "outputs": [
        {
          "internalType": "uint256",
          "name": "",
          "type": "uint256"
        }
      ],
      "stateMutability": "view",
      "type": "function",
      "constant": true
    },
    {
      "inputs": [],
      "name": "tokenIds",
      "outputs": [
        {
          "internalType": "uint256[]",
          "name": "",
          "type": "uint256[]"
        }
      ],
      "stateMutability": "view",
      "type": "function",
      "constant": true
    },
    {
      "inputs": [
        {
          "internalType": "address",
          "name": "owner",
          "type": "address"
        }
      ],
      "name": "balanceOf",
      "outputs": [
        {
          "internalType": "uint256",
          "name": "",
          "type": "uint256"
        }
      ],
      "stateMutability": "view",
      "type": "function",
      "constant": true
    },
    {
      "inputs": [
        {
          "internalType": "uint256",
          "name": "tokenId",
          "type": "uint256"
        }
      ],
      "name": "ownerOf",
      "outputs": [
        {
          "internalType": "address",
          "name": "",
          "type": "address"
        }
      ],
      "stateMutability": "view",
      "type": "function",
      "constant": true
    }
  ],
  "bytecode": "0x60806040523480156200001157600080fd5b506040518060400160405280600581526020017f4e6f746573000000000000000000000000000000000000000000000000000000815250600090805190602001906200005f929190620000b4565b506040518060400160405280600581526020017f4e4f54455300000000000000000000000000000000000000000000000000000081525060019080519060200190620000ad929190620000b4565b50620001c9565b828054620000c29062000193565b90600052602060002090601f016020900481019282620000e6576000855562000132565b82601f106200010157805160ff191683800117855562000132565b8280016001018555821562000132579182015b828111156200013157825182559160200191906001019062000114565b5b50905062000141919062000145565b5090565b5b808211156200016057600081600090555060010162000146565b5090565b7f4e487b7100000000000000000000000000000000000000000000000000000000600052602260045260246000fd5b60006002820490506001821680620001ac57607f821691505b60208210811415620001c357620001c262000164565b5b50919050565b61124180620001d96000396000f3fe608060405234801561001057600080fd5b50600436106100885760003560e01c8063714cff561161005b578063714cff5614610127578063827ff7da14610145578063a43ff68614610175578063f9a989f0146101a557610088565b806318160ddd1461008d5780632feaf817146100ab5780636352211e146100c757806370a08231146100f7575b600080fd5b6100956101d6565b6040516100a291906109a6565b60405180910390f35b6100c560048036038101906100c09190610b1b565b6101e3565b005b6100e160048036038101906100dc9190610bbf565b6103ce565b6040516100ee9190610c2d565b60405180910390f35b610111600480360381019061010c9190610c74565b610410565b60405161011e91906109a6565b60405180910390f35b61012f6104c8565b60405161013c9190610d5f565b60405180910390f35b61015f600480360381019061015a9190610d81565b610520565b60405161016c91906109a6565b60405180910390f35b61018f600480360381019061018a9190610c74565b610551565b60405161019c9190610f4f565b60405180910390f35b6101bf60048036038101906101ba9190610bbf565b61079c565b6040516101cd929190610fbb565b60405180910390f35b6000600280549050905090565b600060405180604001604052808481526020018381525090506000600280549050905060028190806001815401808255809150506001900390600052602060002001600090919091909150558160056000838152602001908152602001600020600082015181600001908051906020019061025f9291906108d0565b50602082015181600101908051906020019061027c9291906108d0565b50905050600660003373ffffffffffffffffffffffffffffffffffffffff1673ffffffffffffffffffffffffffffffffffffffff1681526020019081526020016000208190806001815401808255809150506001900390600052602060002001600090919091909150556001600460003373ffffffffffffffffffffffffffffffffffffffff1673ffffffffffffffffffffffffffffffffffffffff16815260200190815260200160002060008282546103369190611021565b92505081905550336003600083815260200190815260200160002060006101000a81548173ffffffffffffffffffffffffffffffffffffffff021916908373ffffffffffffffffffffffffffffffffffffffff1602179055507f0ce3610e89a4bb9ec9359763f99110ed52a4abaea0b62028a1637e242ca2768b33826040516103c0929190611077565b60405180910390a150505050565b6000806003600084815260200190815260200160002060009054906101000a900473ffffffffffffffffffffffffffffffffffffffff16905080915050919050565b60008073ffffffffffffffffffffffffffffffffffffffff168273ffffffffffffffffffffffffffffffffffffffff161415610481576040517f08c379a000000000000000000000000000000000000000000000000000000000815260040161047890611112565b60405180910390fd5b600460008373ffffffffffffffffffffffffffffffffffffffff1673ffffffffffffffffffffffffffffffffffffffff168152602001908152602001600020549050919050565b6060600280548060200260200160405190810160405280929190818152602001828054801561051657602002820191906000526020600020905b815481526020019060010190808311610502575b5050505050905090565b6006602052816000526040600020818154811061053c57600080fd5b90600052602060002001600091509150505481565b6060600061055e83610410565b905060008167ffffffffffffffff81111561057c5761057b6109f0565b5b6040519080825280602002602001820160405280156105b557816020015b6105a2610956565b81526020019060019003908161059a5790505b50905060005b828110156107915760056000600660008873ffffffffffffffffffffffffffffffffffffffff1673ffffffffffffffffffffffffffffffffffffffff168152602001908152602001600020838154811061061857610617611132565b5b9060005260206000200154815260200190815260200160002060405180604001604052908160008201805461064c90611190565b80601f016020809104026020016040519081016040528092919081815260200182805461067890611190565b80156106c55780601f1061069a576101008083540402835291602001916106c5565b820191906000526020600020905b8154815290600101906020018083116106a857829003601f168201915b505050505081526020016001820180546106de90611190565b80601f016020809104026020016040519081016040528092919081815260200182805461070a90611190565b80156107575780601f1061072c57610100808354040283529160200191610757565b820191906000526020600020905b81548152906001019060200180831161073a57829003601f168201915b50505050508152505082828151811061077357610772611132565b5b60200260200101819052508080610789906111c2565b9150506105bb565b508092505050919050565b60056020528060005260406000206000915090508060000180546107bf90611190565b80601f01602080910402602001604051908101604052809291908181526020018280546107eb90611190565b80156108385780601f1061080d57610100808354040283529160200191610838565b820191906000526020600020905b81548152906001019060200180831161081b57829003601f168201915b50505050509080600101805461084d90611190565b80601f016020809104026020016040519081016040528092919081815260200182805461087990611190565b80156108c65780601f1061089b576101008083540402835291602001916108c6565b820191906000526020600020905b8154815290600101906020018083116108a957829003601f168201915b5050505050905082565b8280546108dc90611190565b90600052602060002090601f0160209004810192826108fe5760008555610945565b82601f1061091757805160ff1916838001178555610945565b82800160010185558215610945579182015b82811115610944578251825591602001919060010190610929565b5b5090506109529190610970565b5090565b604051806040016040528060608152602001606081525090565b5b80821115610989576000816000905550600101610971565b5090565b6000819050919050565b6109a08161098d565b82525050565b60006020820190506109bb6000830184610997565b92915050565b6000604051905090565b600080fd5b600080fd5b600080fd5b600080fd5b6000601f19601f8301169050919050565b7f4e487b7100000000000000000000000000000000000000000000000000000000600052604160045260246000fd5b610a28826109df565b810181811067ffffffffffffffff82111715610a4757610a466109f0565b5b80604052505050565b6000610a5a6109c1565b9050610a668282610a1f565b919050565b600067ffffffffffffffff821115610a8657610a856109f0565b5b610a8f826109df565b9050602081019050919050565b82818337600083830152505050565b6000610abe610ab984610a6b565b610a50565b905082815260208101848484011115610ada57610ad96109da565b5b610ae5848285610a9c565b509392505050565b600082601f830112610b0257610b016109d5565b5b8135610b12848260208601610aab565b91505092915050565b60008060408385031215610b3257610b316109cb565b5b600083013567ffffffffffffffff811115610b5057610b4f6109d0565b5b610b5c85828601610aed565b925050602083013567ffffffffffffffff811115610b7d57610b7c6109d0565b5b610b8985828601610aed565b9150509250929050565b610b9c8161098d565b8114610ba757600080fd5b50565b600081359050610bb981610b93565b92915050565b600060208284031215610bd557610bd46109cb565b5b6000610be384828501610baa565b91505092915050565b600073ffffffffffffffffffffffffffffffffffffffff82169050919050565b6000610c1782610bec565b9050919050565b610c2781610c0c565b82525050565b6000602082019050610c426000830184610c1e565b92915050565b610c5181610c0c565b8114610c5c57600080fd5b50565b600081359050610c6e81610c48565b92915050565b600060208284031215610c8a57610c896109cb565b5b6000610c9884828501610c5f565b91505092915050565b600081519050919050565b600082825260208201905092915050565b6000819050602082019050919050565b610cd68161098d565b82525050565b6000610ce88383610ccd565b60208301905092915050565b6000602082019050919050565b6000610d0c82610ca1565b610d168185610cac565b9350610d2183610cbd565b8060005b83811015610d52578151610d398882610cdc565b9750610d4483610cf4565b925050600181019050610d25565b5085935050505092915050565b60006020820190508181036000830152610d798184610d01565b905092915050565b60008060408385031215610d9857610d976109cb565b5b6000610da685828601610c5f565b9250506020610db785828601610baa565b9150509250929050565b600081519050919050565b600082825260208201905092915050565b6000819050602082019050919050565b600081519050919050565b600082825260208201905092915050565b60005b83811015610e27578082015181840152602081019050610e0c565b83811115610e36576000848401525b50505050565b6000610e4782610ded565b610e518185610df8565b9350610e61818560208601610e09565b610e6a816109df565b840191505092915050565b60006040830160008301518482036000860152610e928282610e3c565b91505060208301518482036020860152610eac8282610e3c565b9150508091505092915050565b6000610ec58383610e75565b905092915050565b6000602082019050919050565b6000610ee582610dc1565b610eef8185610dcc565b935083602082028501610f0185610ddd565b8060005b85811015610f3d5784840389528151610f1e8582610eb9565b9450610f2983610ecd565b925060208a01995050600181019050610f05565b50829750879550505050505092915050565b60006020820190508181036000830152610f698184610eda565b905092915050565b600082825260208201905092915050565b6000610f8d82610ded565b610f978185610f71565b9350610fa7818560208601610e09565b610fb0816109df565b840191505092915050565b60006040820190508181036000830152610fd58185610f82565b90508181036020830152610fe98184610f82565b90509392505050565b7f4e487b7100000000000000000000000000000000000000000000000000000000600052601160045260246000fd5b600061102c8261098d565b91506110378361098d565b9250827fffffffffffffffffffffffffffffffffffffffffffffffffffffffffffffffff0382111561106c5761106b610ff2565b5b828201905092915050565b600060408201905061108c6000830185610c1e565b6110996020830184610997565b9392505050565b7f4e6f7465733a2062616c616e636520717565727920666f7220746865207a657260008201527f6f20616464726573730000000000000000000000000000000000000000000000602082015250565b60006110fc602983610f71565b9150611107826110a0565b604082019050919050565b6000602082019050818103600083015261112b816110ef565b9050919050565b7f4e487b7100000000000000000000000000000000000000000000000000000000600052603260045260246000fd5b7f4e487b7100000000000000000000000000000000000000000000000000000000600052602260045260246000fd5b600060028204905060018216806111a857607f821691505b602082108114156111bc576111bb611161565b5b50919050565b60006111cd8261098d565b91507fffffffffffffffffffffffffffffffffffffffffffffffffffffffffffffffff821415611200576111ff610ff2565b5b60018201905091905056fea2646970667358221220086639ae8b7e43590229ab3cf284e9500f072f1121792b5ce45618defd35230264736f6c634300080b0033",
  "immutableReferences": {},
  "source": "// SPDX-License-Identifier: MIT\npragma solidity >=0.8.0;\n\ncontract Notes {\n\t// Token name\n\tstring private _name;\n\n\t// Token symbol\n\tstring private _symbol;\n\n\tconstructor() {\n\t\t_name = \"Notes\";\n\t\t_symbol = \"NOTES\";\n\t}\n\n\tstruct Note {\n\t\tstring title;\n\t\tstring content;\n\t}\n\n\t// Token creation event\n\tevent Created(address owner, uint256 tokenId);\n\n\t// Array with all token ids, used for enumeration\n\tuint256[] private _allTokens;\n\n\t// Mapping from token ID to owner address\n\tmapping(uint256 => address) private _owners;\n\n\t// Mapping owner address to token count\n\tmapping(address => uint256) private _balances;\n\n\t// Mapping token id to token\n\tmapping(uint256 => Note) public tokenIdToNoteInfo;\n\n\t// Mapping owner address to token list\n\tmapping(address => uint256[]) public userToTokenIdListInfo;\n\n\tfunction notesByOwner(address owner) public view returns(Note[] memory) {\n\t\tuint256 userBalance = balanceOf(owner);\n\t\tNote[] memory userNotes = new Note[](userBalance);\n\t\tfor(uint256 i=0; i<userBalance; i++) {\n\t\t\tuserNotes[i] = tokenIdToNoteInfo[userToTokenIdListInfo[owner][i]];\n\t\t}\n\t\treturn userNotes;\n\t}\n\n\tfunction createNote(string memory _title, string memory _content) public {\n\t\tNote memory newNote = Note(_title, _content);\n\t\tuint256 tokenId = _allTokens.length;\n\t\t_allTokens.push(tokenId);\n\t\ttokenIdToNoteInfo[tokenId] = newNote;\n\t\tuserToTokenIdListInfo[msg.sender].push(tokenId);\n\t\t_balances[msg.sender] += 1;\n\t\t_owners[tokenId] = msg.sender;\n\n\t\temit Created(msg.sender, tokenId);\n\t}\n\n\tfunction totalSupply() public view returns (uint256) {\n\t\treturn _allTokens.length;\n\t}\n\n\tfunction tokenIds() public view returns (uint256[] memory) {\n\t\treturn _allTokens;\n\t}\n\n\tfunction balanceOf(address owner) public view virtual returns (uint256) {\n\t\trequire(owner != address(0), \"Notes: balance query for the zero address\");\n\t\treturn _balances[owner];\n\t}\n\n\tfunction ownerOf(uint256 tokenId) public view virtual returns (address) {\n\t\taddress owner = _owners[tokenId];\n\t\treturn owner;\n\t}\n}\n",
  "sourcePath": "/home/sergera/code/react-truffle-dapp-template/contracts/Notes.sol",
  "compiler": {
    "name": "solc",
    "version": "0.8.11+commit.d7f03943.Emscripten.clang"
  },
  "schemaVersion": "3.4.4",
  "updatedAt": "2022-04-08T04:12:20.716Z",
  "networkType": "ethereum",
  "devdoc": {
    "kind": "dev",
    "methods": {},
    "version": 1
  },
  "userdoc": {
    "kind": "user",
    "methods": {},
    "version": 1
  }
}